S20902020014 05262978170823251028130253128128          0526297817                                                               
D201202510280872202   0114987155593020Û»ÙÀÝK¼ÞÖ³100MG¢Ä-Ü£ 100MG PTP      100T00001000002537000002537000028503001  A0104        
D201202510280872202   0214987081186907Û½ÊÞ½ÀÁÝ¼ÞÖ³2.5MG¢DS 2.5MG PTP      100T00001000000925000000925000010402709  94240        
D201202510280872202   0314987081189960Û·¿ÌßÛÌ´ÝNAÃ-Ìß100MG     100MG    7Ï²X1000001000001057000001057000012322805  60925        
E200000050000032510281302                                                                                                       
