S20902020014 05262978170117251029110245128128          0526297817                                                               
D201202510290874021   0114987080737414²º»ÍßÝÄ»Ý´ÁÙØÕ³¼ÞÖ³¶     900MG      84Î³00001000003144000003144000034612709  X24X10       
D201202510290874021   0214987080002017ËßÀÊÞ½ÀÁÝCA¼ÞÖ³2MG¢»   2MG PTP      100T00001000001321000001321000015902801  425104       
D201202510290874021   0314987080038016¹ÄÁÌ´ÝÃÝËÞ´·0.05%¢»Ü   6.048MG  8MLX10ÎÝ00001000002098000002098000023102802  X25102       
D201202510290874022   0114987616003167ÄÚ¼-ÊÞÁÕ³ÌÚÂ¸½ÀÂÁ         300U     3MLX200001000003292000003292000036822705  RP5R357      
D201202510290874022   0214987616002467ÉÎÞ×ËßÂÄÞÁÕ³ÌÚÂ¸½ÍßÝ      300U     3MLX200001000002314000002314000025862701  RT6HF53      
E200000070000052510291102                                                                                                       
S20902690019 05262978170000251029110001128128          0526297817                                                               
D201202510298832824   0114987138810045ÂÑ×100ÀÞ²¹ÝÁÕ³Ä³            H210G       00001000002615000002615000028772808  Y28972       
D201202510298832824   0214987443277229ÃÞ²µÊÞÝ ¼ÞÖ³80MG PTP  80MG   140T       00001000002896000002896000033602710  P4292        
D201202510298832824   0314987080681014Îß×ÌßÚ¼ÞÝ¸OD¼ÞÖ³75MG¢»Ü²£ PTP100T       00001000001299000001299000014302805  B25503       
E200000050000032510291100                                                                                                       
