S20901660013 05262978170000251020100121128128          0526297817                                                               
D2012025102043398     0114987320603530Õ”≈-æﬁ  ≤∫ﬁ≥ºﬁ÷≥      PTP           100T00002000000871000001742000009602712  J0333        
D2012025102043398     0214987476170306±— ﬁ€  ≤∫ﬁ≥ºﬁ÷≥ ¢YD£  PTP           100T00002000001382000002764000015202802  Y25C01       
E200000040000022510201001                                                                                                       
S20902020014 05262978170088251020100258128128          0526297817                                                               
D201202510200858738   0114987081108756¿ÿ-ºﬁ¥ºﬁ÷≥5MG          5MG PTP      100T00002000008140000016280000092502805  YBA2462      
D201202510200858738   0214987081183579⁄ŒﬁÃ€∑ªº›ºﬁ÷≥500MG¢D 500MG PTP       50T00001000002809000002809000031552801  BQA0454      
D201202510200858801   0114987080034711æ›…ºƒﬁºﬁ÷≥12MG¢ª‹≤£   12MG PTP      100T00001000000477000000477000005302905  725401       
E200000050000032510201002                                                                                                       
