S20902020014 05262978170747251023130251128128          0526297817                                                               
D201202510230865269   0114987896010817∂€≈-Ÿºﬁ÷≥200         200MG PTP      100T00001000000596000000596000006702804  2504040      
D201202510230865269   0214987080633112∆∫◊›ºﬁŸºﬁ÷≥5MG         5MG PTP      100T00001000000547000000547000006102804  625401       
D201202510230865269   0314987087003871ÿ›√ﬁ€›-VG∏ÿ-—0.12%       0.12%   5GX10≤ÿ00001000001223000001223000013852806  5865         
D201202510230865375   0114987081182664€ªŸ¿›Kºﬁ÷≥25MG¢DSEP£  25MG PTP      100T00001000000925000000925000010402801  B3A0147      
E200000060000042510231302                                                                                                       
S20902690019 05262978170000251023124501128128          0526297817                                                               
D201202510248465358   0114987925106603æ€π›Lºﬁ÷≥120MG PTP   120MG   100T       00001000005738000005738000066802710  04040        
E200000030000012510231245                                                                                                       
S20902690019 05262978170000251023200008128128          0526297817                                                               
D201202510248486163   0114987123158831“Ÿ∂øﬁ∞Ÿ ºﬁ÷≥5MG PTP    5MG   100T       00001000000899000000899000010102712  Y602A        
E200000030000012510232000                                                                                                       
