S20901660013 05262978170000251110100124128128          0526297817                                                               
D2012025111028099     0114987123417280Û·¿ÌßÛÌ´ÝNA ¼ÞÖ³ 60M  PTP   60MG    100T00002000000869000001738000010102709  H60429       
D2012025111028099     0214987035209614ÚÊÞÐËßÄÞ ¼ÞÖ³ 100MG   PTP  100MG    100T00001000000836000000836000010402807  5G72RT3      
D2012025111028099     0314987476170306±ÑÊÞÛ Ê²ºÞ³¼ÞÖ³ ¢YD£  PTP           100T00001000001382000001382000015202802  Y25C02       
D2012025111028099     0414987476170306±ÑÊÞÛ Ê²ºÞ³¼ÞÖ³ ¢YD£  PTP           100T00001000001382000001382000015202802  Y25C02       
D2012025111028099     0514987123407915Ì±ÓÁ¼ÞÝ OD ¼ÞÖ³ 20MG  PTP   20MG    100T00001000000894000000894000010402801  HA0251       
E200000070000052511101001                                                                                                       
