S20902020014 05262978170058251106100253128128          0526297817                                                               
D201202511060888347   0114987081181490Ëßµ¸ÞØÀ¿ÞÝ¼ÞÖ³30MG¢D  30MG PTP      100T00001000001869000001869000021002707  N3A0058      
D201202511060888347   0214987080394013ÍÞ»ÞÌ²ÌÞ×-ÄSR¼ÞÖ³200 200MG PTP      100T00001000000925000000925000010402805  725404       
D201202511060888347   0314987116530316ÒÄÎÙÐÝ´Ý»Ý´Ý¼ÞÖ³250M 250MG PTP      100T00001000000869000000869000010402711  F7T01        
E200000050000032511061002                                                                                                       
