S20902020014 05262978170777251029130255128128          0526297817                                                               
D201202510290874199   0114987080737414²º»ÍßÝÄ»Ý´ÁÙØÕ³¼ÞÖ³¶     900MG      84Î³00001000003144000003144000034612709  X24X10       
D201202510290874199   0214987080012719´¾ÞÛ½Ê²ºÞ³¼ÞÖ³HD¢»Ü²       PTP      100T00001000003128000003128000037702806  125702       
D201202510290874199   0314987616003631ÍßÝÆ-ÄÞÙ Ìß×½ 32G      32G 4MM    14ÎÝX500001000001081000001081000000003005  RS7F02B-1    
E200000050000032510291302                                                                                                       
S20902690019 05262978170000251029150001128128          0526297817                                                               
D201202510308844218   0114987081187331ØÊÞ°Û·»ÊÞÝ ¼ÞÖ³15mg ¢ÊÞ²´ÙPTP100T       00001000018816000018816000226702711  JPS8268      
D201202510308844236   0114987443384446´ÝÚ½Ä ¼ÞÖ³200MG     PTP      100T       00005000016618000083090000188202711  P0887        
E200000040000022510291500                                                                                                       
