S20902690019 05262978170000251107180002128128          0526297817                                                               
D201202511109266937   0114987288447139ª›∂œ∏ﬁ»º≥—ºﬁ÷≥500MG¢÷º¿ﬁ£PTP 100T       00002000000493000000986000005902801  225104       
D201202511109266937   0214987123154352¿π∑‘Ãﬁºﬁ÷≥10MG PTP    10MG 10TX10       00001000008270000008270000094302804  570633       
E200000040000022511071800                                                                                                       
