S20902020014 05262978170228251027120244128128          0526297817                                                               
D201202510270869846   0114987443384446´ÝÚ½Ä¼ÞÖ³200MG       200MG PTP      100T00001000016618000016618000188202711  P0890        
D201202510270869846   0214987051183127¸ÞÙÍÞ½Ê²ºÞ³¼ÞÖ³            PTP      100T00001000002280000002280000025803002  CXL1202      
D201202510270869846   0314987901094207Ó»ÌßØÄÞ¸´Ý»Ý´Ý¼ÞÖ³5M   5MG PTP      100T00001000000925000000925000010402710  M043AHB      
E200000050000032510271202                                                                                                       
