S20902020014 05262978170083251021100255128128          0526297817                                                               
D201202510210861032   0114987286113500ª›∂œ∏ﬁ»º≥—ºﬁ÷≥330MG¢ 330MG PTP      100T00001000000490000000490000005902808  5L106        
D201202510210861032   0214987233102878Ω-∏ﬁ◊ºﬁ÷≥50MG         50MG PTP      100T00001000013174000013174000149702709  24094Y1      
D201202510210861032   0314987080002017Àﬂ¿ ﬁΩ¿¡›CAºﬁ÷≥2MG¢ª   2MG PTP      100T00001000001321000001321000015902801  425104       
D201202510210861032   0414987699059402”Àﬁ∫-Ÿ ≤∫ﬁ≥≈≤÷≥ªﬁ≤LD               100Œ≥00001000005397000005397000061402803  454095       
D201202510210861032   0514987173015818±Ωﬁ…-Ÿ≥∂ﬁ≤¥∑4%              4%  5MLX10Œ›00001000001081000001081000012152805  04173        
E200000070000052510211002                                                                                                       
