S20902020014 05262978172832251009050333128128          0526297817                                                               
D201202510090843267   0114987081186853Ã×ÑÛÊ²ºÞ³¼ÞÖ³BP¢DSEP       PTP      100T00001000002814000002814000031302612  589015       
D201202510090843267   0214987086533546¹ÄÌßÛÌ´ÝÃ-Ìß40MG¢»ÝÜ   10X14CM    7Ï²X1000001000001109000001109000012322707  5N13SL       
D201202510090843267   0314987443328877ÎÞÙÀÚÝ¹ÞÙ1%                 1%    25GX1000001000000669000000669000008002807  250090       
D201202510090843328   0114987443384446´ÝÚ½Ä¼ÞÖ³200MG       200MG PTP      100T00001000016618000016618000188202711  P0873        
D201202510090843328   0214987080303718¼Þ×¾ÞÌß´Ý»Ý´Ý¼ÞÖ³50M  50MG PTP      100T00001000000527000000527000005902801  725302       
D201202510090843328   0314987081100316Û·¿ÆÝÃ-Ìß100MG         10X14CM    7Ï²X1000001000001059000001059000012322806  70525        
D201202510090843936   0114987155412031ÄØ¸ÛÙÒÁ±¼ÞÄÞ¼ÞÖ³1MG¢   1MG PTP      100T00001000000575000000575000006402712  A0583        
D201202510090843936   0214987901094207Ó»ÌßØÄÞ¸´Ý»Ý´Ý¼ÞÖ³5M   5MG PTP      100T00001000000925000000925000010402710  M043AHB      
D201202510090843936   0314987081105403Û·¿ÆÝ¼ÞÖ³60MG         60MG PTP      100T00001000000864000000864000010402711  THA8688      
D201202510090843936   0414987081189939Û·¿ÌßÛÌ´ÝNAÃ-Ìß50MG¢      50MG    7Ï²X1000001000000763000000763000008892804  50325        
E200000120000102510090503                                                                                                       
S20901660013 05262978170000251008230227128128          0526297817                                                               
D2012025100927775     0114987123415880×Ý¿Ìß×¿Þ-Ù OD¼ÞÖ³ 15  PTP   15MG    100T00001000000949000000949000011302803  LC591        
D2012025100927775     0214987376069410±ÄÙÊÞ½ÀÁÝ ¼ÞÖ³ 5MG ¢  PTP    5MG    100T00001000000945000000945000010402708  HP0101       
D2012025100928668     0114987123415880×Ý¿Ìß×¿Þ-Ù OD¼ÞÖ³ 15  PTP   15MG    100T00001000000949000000949000011302803  LC591        
D2012025100928668     0214987123416627ÎÞ¸ÞØÎÞ-½ OD¼ÞÖ³ 0.3£ PTP  0.3MG    100T00001000000874000000874000010402712  LA031        
D2012025100928668     0314987376069410±ÄÙÊÞ½ÀÁÝ ¼ÞÖ³ 5MG ¢  PTP    5MG    100T00001000000945000000945000010402708  HP0101       
D2012025100928668     0414987328145711ÍÓÎßØ¿ÞÝ ÅÝº³                      2GX2800003000001018000003054000011422805  J0757        
E200000080000062510082302                                                                                                       
