S20902020014 05262978170135251015110237128128          0526297817                                                               
D201202510150852011   0114987080783015¼ÝÊÞ½ÀÁÝ¼ÞÖ³5MG¢SW£    5MG PTP      100T00001000001540000001540000017302801  524Y01       
D201202510150852011   0214987901129107¾Úº·¼ÌÞ¼ÞÖ³100MG¢VTR 100MG PTP      100T00001000000827000000827000009302801  25027N1      
D201202510150852011   0314987233103042ÍÞÀÆ½¼ÞÖ³50MG         50MG PTP      100T00001000012470000012470000141702802  25010R1      
D201202510150852011   0414987138804143ÂÑ×041ÎÁÕ³´Â·Ä³           (41) 2.5GX3X1400004000002147000008588000023632807  Y26341       
D201202510150852012   0114987080034414ÐÉ»²¸ØÝ´Ý»Ý´Ý¼ÞÖ³50M  50MG PTP      100T00001000001298000001298000014302709  124804       
D201202510150852012   0214987080034414ÐÉ»²¸ØÝ´Ý»Ý´Ý¼ÞÖ³50M  50MG PTP      100T00004000001298000005192000014302802  125202       
D201202510150852012   0314987081186907Û½ÊÞ½ÀÁÝ¼ÞÖ³2.5MG¢DS 2.5MG PTP      100T00001000000925000000925000010402709  94140        
D201202510150852012   0414987081189939Û·¿ÌßÛÌ´ÝNAÃ-Ìß50MG¢      50MG    7Ï²X1000001000000763000000763000008892805  60625        
D201202510150852013   0114987084319548±Ú¼ÞµÝ¶ÞÝ¹Ý¸Ø-Ñ0.5%       0.5%2GÁÕ-ÌÞ²ØX00001000030023000030023000337342611  AEC0020      
E200000110000092510151102                                                                                                       
S20902690019 05262978170000251015110001128128          0526297817                                                               
D201202510157274453   0114987376556712Ì´·¿Ì´Å¼ÞÝ´Ý»Ý´Ý¼ÞÖ³60MG¢SAN 100T       00001000002605000002605000028702703  4K086A       
E200000030000012510151100                                                                                                       
