S20902020014 05262978170854251024130254128128          0526297817                                                               
D201202510240867201   0114987080034711¾ÝÉ¼ÄÞ¼ÞÖ³12MG¢»Ü²£   12MG PTP      100T00001000000477000000477000005302905  725401       
D201202510240867201   0214987901129800ÄÞ·»¿Þ¼Ý¼ÞÖ³1MG¢VTRS   1MG PTP      100T00001000000925000000925000010402712  MG9091       
D201202510240867326   0114987116530316ÒÄÎÙÐÝ´Ý»Ý´Ý¼ÞÖ³250M 250MG PTP      100T00001000000869000000869000010402710  C7T01        
D201202510240867326   0214987616003631ÍßÝÆ-ÄÞÙ Ìß×½ 32G      32G 4MM    14ÎÝX500002000001081000002162000000003005  RS7F02B-1    
E200000060000042510241302                                                                                                       
S20902690019 05262978170000251024124501128128          0526297817                                                               
D201202510278559044   0114987376556712Ì´·¿Ì´Å¼ÞÝ´Ý»Ý´Ý¼ÞÖ³60MG¢SAN 100T       00001000002605000002605000028702703  4K086A       
E200000030000012510241245                                                                                                       
